:100000000C942A000C9447000C9447000C94470071
:100010000C9447000C9447000C9447000C94470044
:100020000C9447000C9447000C9447000C94470034
:100030000C9447000C9447000C9447000C94470024
:100040000C9403070C9447000C9447000C94470051
:100050000C94B70811241FBECFE5D8E0DEBFCDBF9A
:1000600011E0A0E6B0E0ECE8F2E102C005900D92EC
:10007000AA33B107D9F721E0AAE3B1E001C01D928C
:10008000A835B207E1F70E94BD060C9444090C9410
:10009000000080913D0181110BC00E94A806909341
:1000A0004E0180934D0181E080933D0180E01FC0AF
:1000B00080913D018130E9F40E94AA0690934301AA
:1000C000809342012091420130914301A4E6B0E0C7
:1000D0000E94350923E730E040E050E00E94F40838
:1000E00030934C0120934B0110923D0187E00C941A
:1000F000E20608951F93CF93DF9380913F018F5FB6
:1001000080933F01D5E0C0E080914B0190914C017C
:10011000843F914048F081E08093400110923F017C
:1001200082E08093410132C00E948E04182F8435F2
:1001300051F1833441F40E94820610923F0181E024
:1001400080933E0123C081ED810F8B30E0F41F329C
:1001500061F4CC23C9F2D530B1F0D1504AE06D2F13
:1001600081E00E948F06C150CFCF6D2F81E00E94A9
:100170007406EC2FF0E0EA5BFE4F10838AE20E94E7
:10018000F005CF5FDF5FC53009F0BECFDF91CF91C3
:100190001F910895E6E4F1E0AFE4B1E091918D9113
:1001A000981306C081E0EB34F807C1F780E00895AA
:1001B00081E008950F931F93CF93DF9341E650E0C2
:1001C00063E081E00E94850660E08EE00E940A08FC
:1001D00060E08FE00E940A082FEF8EE994E2215040
:1001E00080409040E1F700C000000E94820687E056
:1001F0000E94E20689E490E00E94FE06339AF89499
:1002000081E090E00E94AF0890E0909345018093D8
:10021000440180E090E00E94AF08209144013091B9
:100220004501382B30934501209344010FE411E040
:10023000C0E0D0E080914401909145018C0F9D1F5A
:100240000E94AF08F80181938F012196C530D10536
:1002500089F77894DF91CF911F910F910895FF92C4
:100260000F931F93CF93DF9380914B0190914C019B
:10027000853F914030F082E08093410181E080939E
:10028000400180914D0190914E01813E9140E8F0F6
:1002900080914D0190914E01843F9140B0F4809146
:1002A0003C01811112C01092410160E08EE00E9479
:1002B0000A0860E08FE00E940A0860E08BE10E947B
:1002C0000A0860E085E10E940A080E948E048A32D2
:1002D00009F031C18091410181112DC1809140010E
:1002E000811129C10E94820610923E0110923F01A5
:1002F0004DE650E061E081E00E94850642E750E073
:1003000061E082E00E94850665E081E00E9474065B
:100310000E947A000E948E040E94CA0080936000AE
:1003200090913F0180916000933008F048C088238D
:1003300009F447C090913E01911141C00E948E0482
:1003400020914B0130914C01253F314010F4833412
:1003500069F482E080934101C1E0C09340011092B2
:100360003F010E948206C0933E01E3C0809140019C
:10037000813019F40E948206DCC040E161E081E036
:100380000E948F0647E750E061E081E00E94850609
:10039000EFEFF4E32CE0E150F0402040E1F700C043
:1003A000000040E161E081E00E948F064DE650E0F0
:1003B00061E081E00E9485060E947A00ADCF811144
:1003C0008BC040E161E081E00E948F0648E850E088
:1003D00061E081E00E9485068FEF94E3ECE08150BC
:1003E0009040E040E1F700C0000040E161E081E0C2
:1003F0000E948F0649E950E061E081E00E94850695
:10040000D5E0C0E00E948E04182F81ED810F8B3063
:10041000E0F41F3261F4CC23A9F3D530B1F0D15010
:100420004AE06D2F82E00E948F06C150EBCF6D2F06
:1004300082E00E947406EC2FF0E0E15BFE4F108337
:100440008AE20E94F005CF5FDF5FC530D9F6F894ED
:10045000809144019091450105968F35F4E09F0706
:1004600010F082E090E09093450180934401609108
:10047000440181E090E00E94A6086091450180E07F
:1004800090E00E94A6080FE411E0C0E0D0E0F8017F
:1004900061918F0180914401909145018C0F9D1FC6
:1004A0000E94A6082196C530D10589F778940E944C
:1004B000820648EA50E061E081E00E948506FFEF95
:1004C00029E688E1F15020408040E1F700C00000BB
:1004D0000E94820610923F0180913F01833049F5CE
:1004E00040E161E081E00E948F0647E750E061E073
:1004F00081E00E9485069FEFE4E3FCE09150E0403C
:10050000F040E1F700C000000E94820647EB50E097
:1005100061E081E00E9485062FEF84E39CE021509A
:1005200080409040E1F700C000000E9482061092D7
:100530003F010E94820680914D0190914E01843FBF
:100540009140C0F080914001811114C0C1E0C0937E
:10055000410161E08EE00E940A0860E085E10E94AE
:100560000A0860E08BE10E940A0810923B01C093E8
:100570003C0196C080914D0190914E01813E914089
:10058000E0F480914001811118C01092410160E0B7
:100590008EE00E940A0860E08FE00E940A0860E096
:1005A00085E10E940A0860E08BE10E940A0810922F
:1005B0003B0181E080933C0173C080914101823016
:1005C00009F06EC060E08EE00E940A0861E08FE0F2
:1005D0000E940A0861E085E10E940A0861E08BE15F
:1005E0000E940A0880913A01811105C081E0809340
:1005F0003A010E94820647EC50E061E081E00E94EF
:1006000085064CEC50E065E081E00E948506809113
:100610004D0190914E01CAE0D0E0BE010E94E00879
:1006200080E090E00E9405068EE20E94F005809135
:100630004D0190914E01BE010E94E008BC0180E096
:1006400090E00E9405068EEC90E00E94F2054CECD2
:1006500050E06BE081E00E94850680914B01909113
:100660004C01BE010E94E00880E090E00E94050677
:100670008EE20E94F00580914B0190914C01BE01E9
:100680000E94E008BC0180E090E00E94050685E23F
:100690000E94F00540ED50E061E082E00E94850696
:1006A00080914101823008F051C090913B0181114D
:1006B00012C0911120C04AED50E063E081E00E9439
:1006C000850681E080933B0144EE50E068E082E0E3
:1006D0000E94850610C091110EC04AE068E082E0D9
:1006E0000E948F064EEE50E063E081E00E94850696
:1006F00081E080933B0148EF50E061E082E00E949E
:10070000850680914D0190914E01CAE0D0E0BE0176
:100710000E94E00880E090E00E9405068EE20E94C0
:10072000F00580914D0190914E01BE010E94E008BC
:10073000BC0180E090E00E9405068EEC90E0DF9125
:10074000CF911F910F91FF900C94F2059091400171
:10075000913009F0CDC0823009F0CAC06AE00E9431
:100760007406DAE0C0E00AE010E04CEC50E065E02E
:1007700081E00E94850680914D0190914E01B80163
:100780000E94E00880E090E00E9405068EE20E9450
:10079000F00580914D0190914E01B8010E94E00852
:1007A000BC0180E090E00E9405068EEC90E00E9483
:1007B000F2054CEC50E06BE081E00E9485068091F0
:1007C0004B0190914C01B8010E94E00880E090E05C
:1007D0000E9405068EE20E94F00580914B019091E7
:1007E0004C01B8010E94E008BC0180E090E00E944A
:1007F000050685E20E94F0050E948E04F82E81ED28
:100800008F0D8B30F0F42FE2F2120DC0CC2309F4DF
:10081000ACCFDA30B1F0D1504AE06D2F82E00E94C7
:100820008F06C150A2CF6D2F82E00E947406EC2F7C
:10083000F0E0EA5BFE4FF0828AE20E94F005CF5FB3
:10084000DF5FC53009F091CF0E94CA008130F1F41A
:1008500040E161E082E00E948F0647E750E061E0FE
:1008600082E00E9485068FEF99E6E8E18150904092
:10087000E040E1F700C0000040E161E082E0DF918C
:10088000CF911F910F91FF900C948F061092400111
:1008900040E161E082E00E948F0648E850E061E0BC
:1008A00082E00E948506FFEF29E688E1F1502040B2
:1008B0008040E1F700C0000040E161E082E00E947A
:1008C0008F0660E08FE00E940A0860E085E10E94E8
:1008D0000A0810923B0110923A0110923C011092CA
:1008E0003F01DF91CF911F910F91FF900C948206F1
:1008F000DF91CF911F910F91FF90089561E089E002
:100900000E940A0861E08AE00E940A0861E08BE028
:100910000E940A0861E08CE00C940A089F92AF9252
:10092000BF92CF92DF92EF92FF920F931F93CF93DC
:10093000DF939FE1C92E91E0D92EC3E2D1E024E5F7
:10094000F22EF601E1906F0160E08E2D0E940A0800
:100950008BE1A82E81E0B82E00E010E0F501919027
:100960005F01892D0E948908811115C0FE01E00FE9
:10097000F11FF0808FE19EE40197F1F700C00000C5
:10098000892D0E9489088823D9F3EFE1FEE431978D
:10099000F1F700C000000F5F1F4F04301105F1F6A2
:1009A00061E08E2D0E940A082496F1E0C333DF0730
:1009B00041F68F2DDF91CF911F910F91FF90EF9016
:1009C000DF90CF90BF90AF909F900895AF92BF926D
:1009D000DF92EF92FF920F931F93CF93DF93982FA5
:1009E0009F70D92EC82FC295CF7060E081E00E9421
:1009F0000A0889E3E82E81E0F82E570103E010E0B1
:100A0000D0E0BE01002E02C0759567950A94E2F70A
:100A10006170F50182915F010E940A08015011097D
:100A200080F761E082E00E940A088FEC97E001976E
:100A3000F1F700C0000060E082E00E940A08EFECDD
:100A4000F7E03197F1F700C00000C3E0D0E00D2DD2
:100A500010E0B8010C2E02C0759567950A94E2F774
:100A60006170F70182917F010E940A08219788F73F
:100A700061E082E00E940A088FEC97E00197F1F7AD
:100A800000C0000060E082E00E940A08EFECF7E09E
:100A90003197F1F700C00000DF91CF911F910F91C6
:100AA000FF90EF90DF90BF90AF900895AF92BF920C
:100AB000DF92EF92FF920F931F93CF93DF93982FC4
:100AC0009F70D92EC82FC295CF7061E081E00E943F
:100AD0000A0889E3E82E81E0F82E570103E010E0D0
:100AE000D0E0BE01002E02C0759567950A94E2F72A
:100AF0006170F50182915F010E940A08015011099D
:100B000080F761E082E00E940A088FEC97E001978D
:100B1000F1F700C0000060E082E00E940A08EFECFC
:100B2000F7E03197F1F700C00000C3E0D0E00D2DF1
:100B300010E0B8010C2E02C0759567950A94E2F793
:100B40006170F70182917F010E940A08219788F75E
:100B500061E082E00E940A088FEC97E00197F1F7CC
:100B600000C0000060E082E00E940A08EFECF7E0BD
:100B70003197F1F700C00000DF91CF911F910F91E5
:100B8000FF90EF90DF90BF90AF9008952FE788E33C
:100B900091E0215080409040E1F700C0000082E0E9
:100BA0000E94E60488E20E94E6048FEC97E0019739
:100BB000F1F700C000008CE00E94E6048FEC97E0A3
:100BC0000197F1F700C0000081E00E94E6048FE089
:100BD00097E20197F1F700C0000086E00C94E6046C
:100BE0000C9456050F931F93CF938C01C0E0F8012E
:100BF000EC0FF11D8081882321F00E945605CF5F04
:100C0000F6CFCF911F910F9108954F925F926F92FF
:100C10007F92AF92BF92CF92DF92EF92FF921F939B
:100C2000CF93DF93CDB7DEB764970FB6F894DEBFEE
:100C30000FBECDBF6B017C0161157105810591056A
:100C400029F480E30E94560510E02AC097FF0BC0EC
:100C50008DE20E945605F094E094D094C094C11C9B
:100C6000D11CE11CF11C10E09AE0492E512C612CA2
:100C7000712CAA24A394B12CAC0EBD1EA10EB11CE4
:100C8000C701B601A30192010E941609F501608314
:100C900069017A011F5FC114D104E104F10449F72D
:100CA000115017FD0DC0E1E0F0E0EC0FFD1FE10F6A
:100CB000F11D17FDFA958081805D0E945605F0CFE9
:100CC00064960FB6F894DEBF0FBECDBFDF91CF9113
:100CD0001F91FF90EF90DF90CF90BF90AF907F90EB
:100CE0006F905F904F900895813021F48FEF860FC1
:100CF000806805C0823029F48FEF860F806C0C94D9
:100D0000E604089581E00C94E604CF93DF93EA01B2
:100D10000E947406CE01DF91CF910C94F2050F93DF
:100D20001F93CF93DF93D82F162F042F0E947406A2
:100D3000C0E0C01729F080E20E945605CF5FF9CFCE
:100D4000612F8D2FDF91CF911F910F910C9474061D
:100D50000C94EE060E94EB069C0127533109A8EE85
:100D6000B3E00E94350929E933E040E050E00E94F9
:100D7000F408C9018A569F4F08950E942C070E94CB
:100D8000C6050E947E0466E081E00E94CD0678944C
:100D90000E94DA000E942F01FDCF96B1987F96B98C
:100DA00096B16770692B66B997B19F7397B927B1F0
:100DB000837030E4839FC0011124822B87B93D9852
:100DC000379A089597B1907E97B997B18F71982B04
:100DD00097B9369A089584B195B1089524B135B183
:100DE000A8E8B3E10E943509DC01CB012AE0B69501
:100DF000A795979587952A95D1F7089590935501D2
:100E00008093540108951F920F920FB60F921124F0
:100E10002F933F934F935F936F937F938F939F9302
:100E2000AF93BF93EF93FF93E0915401F09155017D
:100E3000309709F00995FF91EF91BF91AF919F9184
:100E40008F917F916F915F914F913F912F910F9073
:100E50000FBE0F901F901895EBEFF0E040E081E09F
:100E600090E05191342F369536953695242F277082
:100E7000513009F443C020F0523009F482C0C5C09B
:100E8000323001F1333061F1313071F05AB3BC01CD
:100E900002C0660F771F2A95E2F79B01352F322B90
:100EA0003ABB3BB320953DC057B3BC0102C0660FAF
:100EB000771F2A95E2F79B01352F322B37BB38B3CA
:100EC00020953EC054B3BC0102C0660F771F2A951F
:100ED000E2F79B01352F322B34BB35B320953FC051
:100EE00051B3BC0102C0660F771F2A95E2F79B0140
:100EF000352F322B31BB32B3209541C0323011F146
:100F0000333081F1313079F05AB3BC0102C0660F41
:100F1000771F2A95E2F79B012095352F32233ABBA4
:100F20003BB3232342C057B3BC0102C0660F771FF7
:100F30002A95E2F79B012095352F322337BB38B332
:100F4000232343C054B3BC0102C0660F771F2A9508
:100F5000E2F79B012095352F322334BB35B3232391
:100F600025BB53C051B3BC0102C0660F771F2A9541
:100F7000E2F79B012095352F322331BB32B3232377
:100F800043C0323021F1333089F1313081F05AB32E
:100F9000BC0102C0660F771F2A95E2F79B01362F2E
:100FA000309535233ABB3BB3232B2BBB2EC057B315
:100FB000BC0102C0660F771F2A95E2F79B01362F0E
:100FC0003095352337BB38B3232B28BB1EC054B311
:100FD000BC0102C0660F771F2A95E2F79B01362FEE
:100FE0003095352334BB35B3232BBACF51B3BC0175
:100FF00002C0660F771F2A95E2F79B01362F3095C6
:10100000352331BB32B3232B22BB4F5F403209F073
:1010100028CF0895982F969596959695877061306C
:10102000C1F5913091F028F09230D9F0933029F148
:1010300008954BB321E030E0B90102C0660F771F7D
:101040008A95E2F7CB01842B38C048B321E030E029
:10105000B90102C0660F771F8A95E2F7CB01842B96
:101060003AC045B321E030E0B90102C0660F771FF6
:101070008A95E2F7CB01842B3CC042B321E030E0FB
:10108000B90102C0660F771F8A95E2F7CB01842B66
:101090003EC09130A1F028F09230F9F0933059F130
:1010A00008954BB321E030E0B90102C0660F771F0D
:1010B0008A95E2F7CB01809584238BBB089548B3D2
:1010C00021E030E0B90102C0660F771F8A95E2F790
:1010D000CB018095842388BB089545B321E030E09F
:1010E000B90102C0660F771F8A95E2F7CB018095A0
:1010F000842385BB089542B321E030E0B90102C0EA
:10110000660F771F8A95E2F7CB018095842382BB17
:101110000895282F2770869586958695813049F009
:1011200030F0823041F0833079F480B305C089B368
:1011300003C086B301C083B390E002C09595879544
:101140002A95E2F78170089580E00895E199FECF35
:1011500093709FBB8EBB6DBBE29AE19A0895E199B3
:10116000FECF93709FBB8EBBE09A8DB308951F9204
:101170000F920FB60F9211242F933F934F935F93CB
:101180006F937F938F939F93AF93BF93EF93FF934F
:10119000E0915601F0915701309709F00995FF91C0
:1011A000EF91BF91AF919F918F917F916F915F91DF
:1011B0004F913F912F910F900FBE0F901F90189558
:1011C000AA1BBB1B51E107C0AA1FBB1FA617B7076D
:1011D00010F0A61BB70B881F991F5A95A9F7809589
:1011E0009095BC01CD010895A1E21A2EAA1BBB1B4C
:1011F000FD010DC0AA1FBB1FEE1FFF1FA217B307E3
:10120000E407F50720F0A21BB30BE40BF50B661FF8
:10121000771F881F991F1A9469F7609570958095BC
:1012200090959B01AC01BD01CF010895052E97FB60
:101230001EF400940E942D0957FD07D00E94F40867
:1012400007FC03D04EF40C942D0950954095309531
:1012500021953F4F4F4F5F4F089590958095709522
:1012600061957F4F8F4F9F4F0895A29FB001B39F0D
:10127000C001A39F700D811D1124911DB29F700D9F
:0C128000811D1124911D0895F894FFCFEA
:10128C0001466972652053797374656D004F4C4447
:10129C003A004E45573A0057524F4E472050415353
:1012AC0053574F5244212100434F5252454354202F
:1012BC0050415353574F524400454E544552204EC3
:1012CC00455720504153530050415353574F5244AC
:1012DC002053415645440054525920414741494EF0
:1012EC00204C415445520046697265002F00200085
:1012FC0050415353574F52443A0046494E45204DA6
:10130C004F444500783E6E657770617373004845B5
:10131C004154204D4F444500543A00010000000058
:10132C0000000100000000000000000202020202A6
:10133C000002020000020002020101101112130946
:10134C000A0B0C3738392F3435362A3132332D43CA
:0A135C00303D2B02010304050600DA
:00000001FF
